{
  "contractName": "OraclePOC",
  "abi": [
    {
      "anonymous": false,
      "inputs": [
        {
          "indexed": true,
          "internalType": "address",
          "name": "owner",
          "type": "address"
        }
      ],
      "name": "LogNumberAsked",
      "type": "event"
    },
    {
      "anonymous": false,
      "inputs": [
        {
          "indexed": true,
          "internalType": "address",
          "name": "owner",
          "type": "address"
        },
        {
          "indexed": true,
          "internalType": "address",
          "name": "generator",
          "type": "address"
        },
        {
          "indexed": false,
          "internalType": "uint256",
          "name": "value",
          "type": "uint256"
        }
      ],
      "name": "LogNumberDelivered",
      "type": "event"
    },
    {
      "inputs": [],
      "name": "askForNumber",
      "outputs": [
        {
          "internalType": "bool",
          "name": "",
          "type": "bool"
        }
      ],
      "stateMutability": "nonpayable",
      "type": "function"
    },
    {
      "inputs": [
        {
          "internalType": "address",
          "name": "_owner",
          "type": "address"
        },
        {
          "internalType": "uint256",
          "name": "_value",
          "type": "uint256"
        }
      ],
      "name": "deliverNumber",
      "outputs": [
        {
          "internalType": "bool",
          "name": "",
          "type": "bool"
        }
      ],
      "stateMutability": "nonpayable",
      "type": "function"
    }
  ],
  "bytecode": "0x608060405234801561001057600080fd5b506101b6806100206000396000f3fe608060405234801561001057600080fd5b50600436106100365760003560e01c8063090e655e1461003b578063c712dce41461005d575b600080fd5b6100436100c3565b604051808215151515815260200191505060405180910390f35b6100a96004803603604081101561007357600080fd5b81019080803573ffffffffffffffffffffffffffffffffffffffff1690602001909291908035906020019092919050505061010f565b604051808215151515815260200191505060405180910390f35b60003373ffffffffffffffffffffffffffffffffffffffff167fd85aca44ff0f323ecca732129b433caa6c1d73650faff2f3269ce14cc11a800e60405160405180910390a26001905090565b60003373ffffffffffffffffffffffffffffffffffffffff168373ffffffffffffffffffffffffffffffffffffffff167fff8cf6933fbd57ac6b1678884ff93e6928e21fd795a9c37ac17f75576f6acacd846040518082815260200191505060405180910390a3600190509291505056fea2646970667358221220cc3c86ddc72ea18562e07fc13636da2482bf42b163185514f44a6a6e7f5174c964736f6c63430006000033",
  "source": "pragma solidity ^0.6.0;\n\ncontract OraclePOC {\n    event LogNumberAsked(address indexed owner);\n    event LogNumberDelivered(\n        address indexed owner,\n        address indexed generator,\n        uint256 value\n    );\n\n    function askForNumber() public returns (bool) {\n        emit LogNumberAsked(msg.sender);\n        return true;\n    }\n\n    function deliverNumber(address _owner, uint256 _value)\n        public\n        returns (bool)\n    {\n        emit LogNumberDelivered(_owner, msg.sender, _value);\n        return true;\n    }\n}\n",
  "sourcePath": "/Users/matiasbn/Desktop/luckysevenDAO/contracts/OraclePOC.sol",
  "compiler": {
    "name": "solc",
    "version": "0.6.0+commit.26b70077.Emscripten.clang"
  },
  "schemaVersion": "3.0.20",
  "updatedAt": "2020-03-17T01:55:20.388Z",
  "devdoc": {
    "methods": {}
  },
  "userdoc": {
    "methods": {}
  }
}