{
  "contractName": "OracleRBAC",
  "abi": [
    {
      "inputs": [
        {
          "name": "_newAgent",
          "type": "address"
        }
      ],
      "payable": false,
      "stateMutability": "nonpayable",
      "type": "constructor"
    },
    {
      "anonymous": false,
      "inputs": [
        {
          "indexed": true,
          "name": "owner",
          "type": "address"
        }
      ],
      "name": "LogNumberAsked",
      "type": "event"
    },
    {
      "anonymous": false,
      "inputs": [
        {
          "indexed": true,
          "name": "owner",
          "type": "address"
        },
        {
          "indexed": true,
          "name": "generator",
          "type": "address"
        },
        {
          "indexed": false,
          "name": "value",
          "type": "uint256"
        }
      ],
      "name": "LogNumberDelivered",
      "type": "event"
    },
    {
      "constant": false,
      "inputs": [
        {
          "name": "_newRandomAgent",
          "type": "address"
        }
      ],
      "name": "addRandomAgent",
      "outputs": [
        {
          "name": "",
          "type": "bool"
        }
      ],
      "payable": false,
      "stateMutability": "nonpayable",
      "type": "function"
    },
    {
      "constant": false,
      "inputs": [],
      "name": "askForNumber",
      "outputs": [
        {
          "name": "",
          "type": "bool"
        }
      ],
      "payable": false,
      "stateMutability": "nonpayable",
      "type": "function"
    },
    {
      "constant": false,
      "inputs": [
        {
          "name": "_owner",
          "type": "address"
        },
        {
          "name": "_value",
          "type": "uint256"
        }
      ],
      "name": "deliverNumber",
      "outputs": [
        {
          "name": "",
          "type": "bool"
        }
      ],
      "payable": false,
      "stateMutability": "nonpayable",
      "type": "function"
    }
  ],
  "bytecode": "0x608060405234801561001057600080fd5b506040516020806107548339810180604052602081101561003057600080fd5b8101908080519060200190929190505050610062336000610089640100000000026103a4179091906401000000009004565b610083816000610089640100000000026103a4179091906401000000009004565b50610298565b6100a28282610175640100000000026401000000009004565b151515610117576040517f08c379a000000000000000000000000000000000000000000000000000000000815260040180806020018281038252601f8152602001807f526f6c65733a206163636f756e7420616c72656164792068617320726f6c650081525060200191505060405180910390fd5b60018260000160008373ffffffffffffffffffffffffffffffffffffffff1673ffffffffffffffffffffffffffffffffffffffff16815260200190815260200160002060006101000a81548160ff0219169083151502179055505050565b60008073ffffffffffffffffffffffffffffffffffffffff168273ffffffffffffffffffffffffffffffffffffffff1614151515610241576040517f08c379a00000000000000000000000000000000000000000000000000000000081526004018080602001828103825260228152602001807f526f6c65733a206163636f756e7420697320746865207a65726f20616464726581526020017f737300000000000000000000000000000000000000000000000000000000000081525060400191505060405180910390fd5b8260000160008373ffffffffffffffffffffffffffffffffffffffff1673ffffffffffffffffffffffffffffffffffffffff16815260200190815260200160002060009054906101000a900460ff16905092915050565b6104ad806102a76000396000f3fe608060405260043610610057576000357c0100000000000000000000000000000000000000000000000000000000900463ffffffff168063090e655e1461005c5780635c953b4c1461008b578063c712dce4146100f4575b600080fd5b34801561006857600080fd5b50610071610167565b604051808215151515815260200191505060405180910390f35b34801561009757600080fd5b506100da600480360360208110156100ae57600080fd5b81019080803573ffffffffffffffffffffffffffffffffffffffff1690602001909291905050506101b3565b604051808215151515815260200191505060405180910390f35b34801561010057600080fd5b5061014d6004803603604081101561011757600080fd5b81019080803573ffffffffffffffffffffffffffffffffffffffff169060200190929190803590602001909291905050506101f1565b604051808215151515815260200191505060405180910390f35b60003373ffffffffffffffffffffffffffffffffffffffff167fd85aca44ff0f323ecca732129b433caa6c1d73650faff2f3269ce14cc11a800e60405160405180910390a26001905090565b60006101c933600061028190919063ffffffff16565b15156101d457600080fd5b6101e88260006103a490919063ffffffff16565b60019050919050565b600061020733600061028190919063ffffffff16565b151561021257600080fd5b3373ffffffffffffffffffffffffffffffffffffffff168373ffffffffffffffffffffffffffffffffffffffff167fff8cf6933fbd57ac6b1678884ff93e6928e21fd795a9c37ac17f75576f6acacd846040518082815260200191505060405180910390a36001905092915050565b60008073ffffffffffffffffffffffffffffffffffffffff168273ffffffffffffffffffffffffffffffffffffffff161415151561034d576040517f08c379a00000000000000000000000000000000000000000000000000000000081526004018080602001828103825260228152602001807f526f6c65733a206163636f756e7420697320746865207a65726f20616464726581526020017f737300000000000000000000000000000000000000000000000000000000000081525060400191505060405180910390fd5b8260000160008373ffffffffffffffffffffffffffffffffffffffff1673ffffffffffffffffffffffffffffffffffffffff16815260200190815260200160002060009054906101000a900460ff16905092915050565b6103ae8282610281565b151515610423576040517f08c379a000000000000000000000000000000000000000000000000000000000815260040180806020018281038252601f8152602001807f526f6c65733a206163636f756e7420616c72656164792068617320726f6c650081525060200191505060405180910390fd5b60018260000160008373ffffffffffffffffffffffffffffffffffffffff1673ffffffffffffffffffffffffffffffffffffffff16815260200190815260200160002060006101000a81548160ff021916908315150217905550505056fea165627a7a723058205036fc3f059cce905b65ed3f97ba6a6675c6d214a0758c9882f52675286495670029",
  "source": "pragma solidity >=0.5.0 <0.7.0;\n\nimport \"@openzeppelin/contracts/access/Roles.sol\";\n\ncontract OracleRBAC {\n    using Roles for Roles.Role;\n    Roles.Role private _randomAgent;\n    ///@dev Constructor\n    constructor(address _newAgent) public {\n        _randomAgent.add(msg.sender);\n        _randomAgent.add(_newAgent);\n    }\n\n    ///@dev Modifiers\n    modifier onlyRandomAgent() {\n        require(_randomAgent.has(msg.sender));\n        _;\n    }\n\n    ///@dev Events\n    event LogNumberAsked(address indexed owner);\n    event LogNumberDelivered(\n        address indexed owner,\n        address indexed generator,\n        uint256 value\n    );\n\n    ///@dev RBAC functions\n    function addRandomAgent(address _newRandomAgent)\n        public\n        onlyRandomAgent\n        returns (bool)\n    {\n        _randomAgent.add(_newRandomAgent);\n        return true;\n    }\n\n    ///@dev Random number functions\n    function askForNumber() public returns (bool) {\n        emit LogNumberAsked(msg.sender);\n        return true;\n    }\n\n    function deliverNumber(address _owner, uint256 _value)\n        public\n        onlyRandomAgent\n        returns (bool)\n    {\n        emit LogNumberDelivered(_owner, msg.sender, _value);\n        return true;\n    }\n}\n",
  "sourcePath": "/Users/matiasbn/Desktop/luckysevenDAO/contracts/OracleRBAC.sol",
  "compiler": {
    "name": "solc",
    "version": "0.5.0+commit.1d4f565a.Emscripten.clang"
  },
  "schemaVersion": "3.0.20",
  "updatedAt": "2020-03-22T15:23:36.596Z",
  "networkType": "ethereum",
  "devdoc": {
    "methods": {
      "addRandomAgent(address)": {
        "details": "RBAC functions"
      },
      "askForNumber()": {
        "details": "Random number functions"
      },
      "constructor": {
        "details": "Constructor"
      }
    }
  },
  "userdoc": {
    "methods": {}
  }
}