{
  "contractName": "OraclePOC",
  "abi": [
    {
      "anonymous": false,
      "inputs": [
        {
          "indexed": true,
          "name": "owner",
          "type": "address"
        }
      ],
      "name": "LogNumberAsked",
      "type": "event"
    },
    {
      "anonymous": false,
      "inputs": [
        {
          "indexed": true,
          "name": "owner",
          "type": "address"
        },
        {
          "indexed": true,
          "name": "generator",
          "type": "address"
        },
        {
          "indexed": false,
          "name": "value",
          "type": "uint256"
        }
      ],
      "name": "LogNumberDelivered",
      "type": "event"
    },
    {
      "constant": false,
      "inputs": [],
      "name": "askForNumber",
      "outputs": [
        {
          "name": "",
          "type": "bool"
        }
      ],
      "payable": false,
      "stateMutability": "nonpayable",
      "type": "function"
    },
    {
      "constant": false,
      "inputs": [
        {
          "name": "_owner",
          "type": "address"
        },
        {
          "name": "_value",
          "type": "uint256"
        }
      ],
      "name": "deliverNumber",
      "outputs": [
        {
          "name": "",
          "type": "bool"
        }
      ],
      "payable": false,
      "stateMutability": "nonpayable",
      "type": "function"
    }
  ],
  "bytecode": "0x608060405234801561001057600080fd5b506101dc806100206000396000f3fe60806040526004361061004c576000357c0100000000000000000000000000000000000000000000000000000000900463ffffffff168063090e655e14610051578063c712dce414610080575b600080fd5b34801561005d57600080fd5b506100666100f3565b604051808215151515815260200191505060405180910390f35b34801561008c57600080fd5b506100d9600480360360408110156100a357600080fd5b81019080803573ffffffffffffffffffffffffffffffffffffffff1690602001909291908035906020019092919050505061013f565b604051808215151515815260200191505060405180910390f35b60003373ffffffffffffffffffffffffffffffffffffffff167fd85aca44ff0f323ecca732129b433caa6c1d73650faff2f3269ce14cc11a800e60405160405180910390a26001905090565b60003373ffffffffffffffffffffffffffffffffffffffff168373ffffffffffffffffffffffffffffffffffffffff167fff8cf6933fbd57ac6b1678884ff93e6928e21fd795a9c37ac17f75576f6acacd846040518082815260200191505060405180910390a3600190509291505056fea165627a7a72305820d2a4f51f70ccbd2075565a6c5851754224ff96fd341cfc90a4ce4ee53fc139af0029",
  "source": "pragma solidity >=0.5.0 <0.7.0;\n\ncontract OraclePOC {\n    event LogNumberAsked(address indexed owner);\n    event LogNumberDelivered(\n        address indexed owner,\n        address indexed generator,\n        uint256 value\n    );\n\n    function askForNumber() public returns (bool) {\n        emit LogNumberAsked(msg.sender);\n        return true;\n    }\n\n    function deliverNumber(address _owner, uint256 _value)\n        public\n        returns (bool)\n    {\n        emit LogNumberDelivered(_owner, msg.sender, _value);\n        return true;\n    }\n}\n",
  "sourcePath": "/Users/matiasbn/Desktop/luckysevenDAO/contracts/OraclePOC.sol",
  "compiler": {
    "name": "solc",
    "version": "0.5.0+commit.1d4f565a.Emscripten.clang"
  },
  "schemaVersion": "3.0.20",
  "updatedAt": "2020-03-22T15:23:36.594Z",
  "networkType": "ethereum",
  "devdoc": {
    "methods": {}
  },
  "userdoc": {
    "methods": {}
  }
}